{
  "contractName": "SupplyChain",
  "abi": [
    {
      "constant": true,
      "inputs": [],
      "name": "name",
      "outputs": [
        {
          "name": "",
          "type": "string"
        }
      ],
      "payable": false,
      "stateMutability": "view",
      "type": "function",
      "signature": "0x06fdde03"
    },
    {
      "inputs": [],
      "payable": false,
      "stateMutability": "nonpayable",
      "type": "constructor",
      "signature": "constructor"
    },
    {
      "anonymous": false,
      "inputs": [
        {
          "indexed": false,
          "name": "index",
          "type": "uint256"
        }
      ],
      "name": "Added",
      "type": "event",
      "signature": "0x64a55044d1f2eddebe1b90e8e2853e8e96931cefadbfa0b2ceb34bee36061941"
    },
    {
      "constant": true,
      "inputs": [
        {
          "name": "_a",
          "type": "string"
        },
        {
          "name": "_b",
          "type": "string"
        }
      ],
      "name": "concat",
      "outputs": [
        {
          "name": "",
          "type": "string"
        }
      ],
      "payable": false,
      "stateMutability": "pure",
      "type": "function",
      "signature": "0x89c19ddb"
    },
    {
      "constant": false,
      "inputs": [
        {
          "name": "_text",
          "type": "string"
        },
        {
          "name": "_date",
          "type": "string"
        }
      ],
      "name": "newItem",
      "outputs": [
        {
          "name": "",
          "type": "bool"
        }
      ],
      "payable": false,
      "stateMutability": "nonpayable",
      "type": "function",
      "signature": "0xa3d835c0"
    },
    {
      "constant": false,
      "inputs": [
        {
          "name": "_productId",
          "type": "uint256"
        },
        {
          "name": "info",
          "type": "string"
        }
      ],
      "name": "addState",
      "outputs": [
        {
          "name": "",
          "type": "string"
        }
      ],
      "payable": false,
      "stateMutability": "nonpayable",
      "type": "function",
      "signature": "0x453bccb6"
    },
    {
      "constant": true,
      "inputs": [
        {
          "name": "_productId",
          "type": "uint256"
        }
      ],
      "name": "searchProduct",
      "outputs": [
        {
          "name": "",
          "type": "string"
        }
      ],
      "payable": false,
      "stateMutability": "view",
      "type": "function",
      "signature": "0x3cde01b5"
    },
    {
      "constant": true,
      "inputs": [],
      "name": "sayHello",
      "outputs": [
        {
          "name": "",
          "type": "string"
        }
      ],
      "payable": false,
      "stateMutability": "pure",
      "type": "function",
      "signature": "0xef5fb05b"
    }
  ],
  "bytecode": "0x60806040526040805190810160405280600681526020017f53686972696e00000000000000000000000000000000000000000000000000008152506000908051906020019061004f929190610067565b50600060035534801561006157600080fd5b5061010c565b828054600181600116156101000203166002900490600052602060002090601f016020900481019282601f106100a857805160ff19168380011785556100d6565b828001600101855582156100d6579182015b828111156100d55782518255916020019190600101906100ba565b5b5090506100e391906100e7565b5090565b61010991905b808211156101055760008160009055506001016100ed565b5090565b90565b611095806200011c6000396000f3fe608060405260043610610078576000357c0100000000000000000000000000000000000000000000000000000000900463ffffffff16806306fdde031461007d5780633cde01b51461010d578063453bccb6146101c157806389c19ddb1461030c578063a3d835c0146104e4578063ef5fb05b1461065b575b600080fd5b34801561008957600080fd5b506100926106eb565b6040518080602001828103825283818151815260200191508051906020019080838360005b838110156100d25780820151818401526020810190506100b7565b50505050905090810190601f1680156100ff5780820380516001836020036101000a031916815260200191505b509250505060405180910390f35b34801561011957600080fd5b506101466004803603602081101561013057600080fd5b8101908080359060200190929190505050610789565b6040518080602001828103825283818151815260200191508051906020019080838360005b8381101561018657808201518184015260208101905061016b565b50505050905090810190601f1680156101b35780820380516001836020036101000a031916815260200191505b509250505060405180910390f35b3480156101cd57600080fd5b50610291600480360360408110156101e457600080fd5b81019080803590602001909291908035906020019064010000000081111561020b57600080fd5b82018360208201111561021d57600080fd5b8035906020019184600183028401116401000000008311171561023f57600080fd5b91908080601f016020809104026020016040519081016040528093929190818152602001838380828437600081840152601f19601f820116905080830192505050505050509192919290505050610ad5565b6040518080602001828103825283818151815260200191508051906020019080838360005b838110156102d15780820151818401526020810190506102b6565b50505050905090810190601f1680156102fe5780820380516001836020036101000a031916815260200191505b509250505060405180910390f35b34801561031857600080fd5b506104696004803603604081101561032f57600080fd5b810190808035906020019064010000000081111561034c57600080fd5b82018360208201111561035e57600080fd5b8035906020019184600183028401116401000000008311171561038057600080fd5b91908080601f016020809104026020016040519081016040528093929190818152602001838380828437600081840152601f19601f820116905080830192505050505050509192919290803590602001906401000000008111156103e357600080fd5b8201836020820111156103f557600080fd5b8035906020019184600183028401116401000000008311171561041757600080fd5b91908080601f016020809104026020016040519081016040528093929190818152602001838380828437600081840152601f19601f820116905080830192505050505050509192919290505050610bff565b6040518080602001828103825283818151815260200191508051906020019080838360005b838110156104a957808201518184015260208101905061048e565b50505050905090810190601f1680156104d65780820380516001836020036101000a031916815260200191505b509250505060405180910390f35b3480156104f057600080fd5b506106416004803603604081101561050757600080fd5b810190808035906020019064010000000081111561052457600080fd5b82018360208201111561053657600080fd5b8035906020019184600183028401116401000000008311171561055857600080fd5b91908080601f016020809104026020016040519081016040528093929190818152602001838380828437600081840152601f19601f820116905080830192505050505050509192919290803590602001906401000000008111156105bb57600080fd5b8201836020820111156105cd57600080fd5b803590602001918460018302840111640100000000831117156105ef57600080fd5b91908080601f016020809104026020016040519081016040528093929190818152602001838380828437600081840152601f19601f820116905080830192505050505050509192919290505050610dd2565b604051808215151515815260200191505060405180910390f35b34801561066757600080fd5b50610670610ed7565b6040518080602001828103825283818151815260200191508051906020019080838360005b838110156106b0578082015181840152602081019050610695565b50505050905090810190601f1680156106dd5780820380516001836020036101000a031916815260200191505b509250505060405180910390f35b60008054600181600116156101000203166002900480601f0160208091040260200160405190810160405280929190818152602001828054600181600116156101000203166002900480156107815780601f1061075657610100808354040283529160200191610781565b820191906000526020600020905b81548152906001019060200180831161076457829003601f168201915b505050505081565b6060600354821115151561079c57600080fd5b60606040805190810160405280600e81526020017f50726f64756374204e616d653a20000000000000000000000000000000000000815250905061088e81600160008681526020019081526020016000206001018054600181600116156101000203166002900480601f0160208091040260200160405190810160405280929190818152602001828054600181600116156101000203166002900480156108845780601f1061085957610100808354040283529160200191610884565b820191906000526020600020905b81548152906001019060200180831161086757829003601f168201915b5050505050610bff565b90506108cf816040805190810160405280601681526020017f3c62723e4d616e756661637475726520446174653a2000000000000000000000815250610bff565b905061098981600160008681526020019081526020016000206003018054600181600116156101000203166002900480601f01602080910402602001604051908101604052809291908181526020018280546001816001161561010002031660029004801561097f5780601f106109545761010080835404028352916020019161097f565b820191906000526020600020905b81548152906001019060200180831161096257829003601f168201915b5050505050610bff565b905060008090505b6001600085815260200190815260200160002060040154811015610acb576109ee826040805190810160405280601881526020017f3c62723e57617265686f757365204c6f636174696f6e3a200000000000000000815250610bff565b9150610abc826001600087815260200190815260200160002060050160008481526020019081526020016000206000018054600181600116156101000203166002900480601f016020809104026020016040519081016040528092919081815260200182805460018160011615610100020316600290048015610ab25780601f10610a8757610100808354040283529160200191610ab2565b820191906000526020600020905b815481529060010190602001808311610a9557829003601f168201915b5050505050610bff565b91508080600101915050610991565b5080915050919050565b60606003548311151515610ae857600080fd5b610af0610f14565b60408051908101604052808481526020013373ffffffffffffffffffffffffffffffffffffffff16815250905080600160008681526020019081526020016000206005016000600160008881526020019081526020016000206004015481526020019081526020016000206000820151816000019080519060200190610b77929190610f44565b5060208201518160010160006101000a81548173ffffffffffffffffffffffffffffffffffffffff021916908373ffffffffffffffffffffffffffffffffffffffff1602179055509050506001806000868152602001908152602001600020600401540160016000868152602001908152602001600020600401819055508291505092915050565b6060808390506060839050606081518351016040519080825280601f01601f191660200182016040528015610c435781602001600182028038833980820191505090505b5090506060819050600080905060008090505b8551811015610d09578581815181101515610c6d57fe5b9060200101517f010000000000000000000000000000000000000000000000000000000000000090047f0100000000000000000000000000000000000000000000000000000000000000028383806001019450815181101515610ccc57fe5b9060200101907effffffffffffffffffffffffffffffffffffffffffffffffffffffffffffff1916908160001a9053508080600101915050610c56565b5060008090505b8451811015610dc3578481815181101515610d2757fe5b9060200101517f010000000000000000000000000000000000000000000000000000000000000090047f0100000000000000000000000000000000000000000000000000000000000000028383806001019450815181101515610d8657fe5b9060200101907effffffffffffffffffffffffffffffffffffffffffffffffffffffffffffff1916908160001a9053508080600101915050610d10565b50819550505050505092915050565b60008060016000600260008154809291906001019190505581526020019081526020016000209050338160000160006101000a81548173ffffffffffffffffffffffffffffffffffffffff021916908373ffffffffffffffffffffffffffffffffffffffff1602179055506000816004018190555083816001019080519060200190610e5f929190610fc4565b50600354816002018190555082816003019080519060200190610e83929190610fc4565b506001600354016003819055507f64a55044d1f2eddebe1b90e8e2853e8e96931cefadbfa0b2ceb34bee360619416001600354036040518082815260200191505060405180910390a1600191505092915050565b60606040805190810160405280600c81526020017f48656c6c6f20576f726c64210000000000000000000000000000000000000000815250905090565b604080519081016040528060608152602001600073ffffffffffffffffffffffffffffffffffffffff1681525090565b828054600181600116156101000203166002900490600052602060002090601f016020900481019282601f10610f8557805160ff1916838001178555610fb3565b82800160010185558215610fb3579182015b82811115610fb2578251825591602001919060010190610f97565b5b509050610fc09190611044565b5090565b828054600181600116156101000203166002900490600052602060002090601f016020900481019282601f1061100557805160ff1916838001178555611033565b82800160010185558215611033579182015b82811115611032578251825591602001919060010190611017565b5b5090506110409190611044565b5090565b61106691905b8082111561106257600081600090555060010161104a565b5090565b9056fea165627a7a723058204778278de37566e314228d975075191ea8bbfb0a2380b37b378b0f790aa074d00029",
  "source": "// SPDX-License-Identifier: MIT\npragma solidity >=0.4.22 <0.9.0;\n\ncontract SupplyChain {\n  string public name ='Shirin';\n  event Added(uint256 index);\n    \n  struct State{\n      string description;\n      address person;\n  }\n  \n  struct Product{\n      address creator;\n      string productName;\n      uint256 productId;\n      string date;\n      uint256 totalStates;\n      mapping (uint256 => State) positions;\n  }\n  \n  mapping(uint => Product) allProducts;\n  uint numOfItems;\n  uint256 items=0;\n  \n  function concat(string memory _a, string memory _b) public pure returns (string memory){\n      bytes memory bytes_a = bytes(_a);\n      bytes memory bytes_b = bytes(_b);\n      string memory length_ab = new string(bytes_a.length + bytes_b.length);\n      bytes memory bytes_c = bytes(length_ab);\n      uint k = 0;\n      for (uint i = 0; i < bytes_a.length; i++) bytes_c[k++] = bytes_a[i];\n      for (uint i = 0; i < bytes_b.length; i++) bytes_c[k++] = bytes_b[i];\n      return string(bytes_c);\n  }\n  \n  function newItem(string memory _text, string memory _date) public returns (bool) {\n      Product storage p = allProducts[numOfItems++];\n      p.creator = msg.sender;\n      p.totalStates = 0;\n      p.productName = _text;\n      p.productId = items;\n      p.date = _date;\n      items = items+1;\n      emit Added(items-1);\n      return true;\n  }\n  \n  function addState(uint _productId, string memory info) public returns (string memory) {\n      require(_productId<=items);\n      State memory newState = State({person: msg.sender, description: info});\n      allProducts[_productId].positions[ allProducts[_productId].totalStates ]=newState;\n      allProducts[_productId].totalStates = allProducts[_productId].totalStates +1;\n      return info;\n  }\n  \n  function searchProduct(uint _productId) public view returns (string memory) {\n\n      require(_productId<=items);\n      string memory output=\"Product Name: \";\n      output=concat(output, allProducts[_productId].productName);\n      output=concat(output, \"<br>Manufacture Date: \");\n      output=concat(output, allProducts[_productId].date);\n      \n      for (uint256 j=0; j<allProducts[_productId].totalStates; j++){\n          output=concat(output, \"<br>Warehouse Location: \");\n          output=concat(output, allProducts[_productId].positions[j].description);\n      }\n      return output;\n      \n  }\n\n  function sayHello() public pure returns (string memory) {\n      return 'Hello World!';\n  }\n\n  constructor() public{\n  }\n\n}",
  "sourcePath": "/home/hyperloop/dev/ether-flask/Supply-Chain/src/contracts/SupplyChain.sol",
  "compiler": {
    "name": "solc",
    "version": "0.5.0+commit.1d4f565a.Emscripten.clang"
  },
  "schemaVersion": "3.0.1",
  "updatedAt": "2021-07-15T08:04:07.493Z",
  "devdoc": {
    "methods": {}
  },
  "userdoc": {
    "methods": {}
  }
}